{
  "_format": "hh-sol-artifact-1",
  "contractName": "Aadhaar",
  "sourceName": "contracts/Aadhaar.sol",
  "abi": [
    {
      "inputs": [
        {
          "internalType": "address",
          "name": "_verifier",
          "type": "address"
        }
      ],
      "stateMutability": "nonpayable",
      "type": "constructor"
    },
    {
      "anonymous": false,
      "inputs": [
        {
          "indexed": true,
          "internalType": "address",
          "name": "owner",
          "type": "address"
        },
        {
          "indexed": true,
          "internalType": "uint256",
          "name": "aadhaarNumber",
          "type": "uint256"
        }
      ],
      "name": "IdentityCreated",
      "type": "event"
    },
    {
      "anonymous": false,
      "inputs": [
        {
          "indexed": true,
          "internalType": "address",
          "name": "owner",
          "type": "address"
        },
        {
          "indexed": true,
          "internalType": "uint256",
          "name": "aadhaarNumber",
          "type": "uint256"
        }
      ],
      "name": "IdentityUpdated",
      "type": "event"
    },
    {
      "inputs": [
        {
          "internalType": "string",
          "name": "name",
          "type": "string"
        },
        {
          "internalType": "string",
          "name": "dob",
          "type": "string"
        },
        {
          "internalType": "string",
          "name": "gender",
          "type": "string"
        },
        {
          "internalType": "string",
          "name": "mobileNumber",
          "type": "string"
        }
      ],
      "name": "createIdentity",
      "outputs": [],
      "stateMutability": "nonpayable",
      "type": "function"
    },
    {
      "inputs": [],
      "name": "getIdentity",
      "outputs": [
        {
          "components": [
            {
              "internalType": "uint256",
              "name": "aadhaarNumber",
              "type": "uint256"
            },
            {
              "internalType": "string",
              "name": "name",
              "type": "string"
            },
            {
              "internalType": "string",
              "name": "dob",
              "type": "string"
            },
            {
              "internalType": "string",
              "name": "gender",
              "type": "string"
            },
            {
              "internalType": "string",
              "name": "mobileNumber",
              "type": "string"
            }
          ],
          "internalType": "struct Aadhaar.Identity",
          "name": "",
          "type": "tuple"
        }
      ],
      "stateMutability": "view",
      "type": "function"
    },
    {
      "inputs": [],
      "name": "total_count",
      "outputs": [
        {
          "internalType": "uint256",
          "name": "",
          "type": "uint256"
        }
      ],
      "stateMutability": "view",
      "type": "function"
    },
    {
      "inputs": [
        {
          "internalType": "string",
          "name": "name",
          "type": "string"
        },
        {
          "internalType": "string",
          "name": "dob",
          "type": "string"
        },
        {
          "internalType": "string",
          "name": "gender",
          "type": "string"
        },
        {
          "internalType": "string",
          "name": "mobileNumber",
          "type": "string"
        }
      ],
      "name": "updateIdentity",
      "outputs": [],
      "stateMutability": "nonpayable",
      "type": "function"
    },
    {
      "inputs": [
        {
          "internalType": "uint256[8]",
          "name": "_proof",
          "type": "uint256[8]"
        }
      ],
      "name": "verifyProof",
      "outputs": [
        {
          "internalType": "bool",
          "name": "",
          "type": "bool"
        }
      ],
      "stateMutability": "view",
      "type": "function"
    }
  ],
  "bytecode": "0x60806040523480156200001157600080fd5b506040516200220b3803806200220b8339818101604052810190620000379190620000e9565b80600260006101000a81548173ffffffffffffffffffffffffffffffffffffffff021916908373ffffffffffffffffffffffffffffffffffffffff160217905550506200011b565b600080fd5b600073ffffffffffffffffffffffffffffffffffffffff82169050919050565b6000620000b18262000084565b9050919050565b620000c381620000a4565b8114620000cf57600080fd5b50565b600081519050620000e381620000b8565b92915050565b6000602082840312156200010257620001016200007f565b5b60006200011284828501620000d2565b91505092915050565b6120e0806200012b6000396000f3fe608060405234801561001057600080fd5b50600436106100575760003560e01c806336afc6fa1461005c578063398f00861461007a578063b39e31a514610098578063d93dda48146100b4578063f398f6d9146100e4575b600080fd5b610064610100565b6040516100719190611363565b60405180910390f35b61008261042e565b60405161008f9190611394565b60405180910390f35b6100b260048036038101906100ad91906114f8565b610434565b005b6100ce60048036038101906100c991906115f6565b610655565b6040516100db919061163f565b60405180910390f35b6100fe60048036038101906100f991906114f8565b610b4c565b005b6101086111dd565b6000600160003373ffffffffffffffffffffffffffffffffffffffff1673ffffffffffffffffffffffffffffffffffffffff168152602001908152602001600020600001540361018d576040517f08c379a0000000000000000000000000000000000000000000000000000000008152600401610184906116dd565b60405180910390fd5b600160003373ffffffffffffffffffffffffffffffffffffffff1673ffffffffffffffffffffffffffffffffffffffff1681526020019081526020016000206040518060a0016040529081600082015481526020016001820180546101f19061172c565b80601f016020809104026020016040519081016040528092919081815260200182805461021d9061172c565b801561026a5780601f1061023f5761010080835404028352916020019161026a565b820191906000526020600020905b81548152906001019060200180831161024d57829003601f168201915b505050505081526020016002820180546102839061172c565b80601f01602080910402602001604051908101604052809291908181526020018280546102af9061172c565b80156102fc5780601f106102d1576101008083540402835291602001916102fc565b820191906000526020600020905b8154815290600101906020018083116102df57829003601f168201915b505050505081526020016003820180546103159061172c565b80601f01602080910402602001604051908101604052809291908181526020018280546103419061172c565b801561038e5780601f106103635761010080835404028352916020019161038e565b820191906000526020600020905b81548152906001019060200180831161037157829003601f168201915b505050505081526020016004820180546103a79061172c565b80601f01602080910402602001604051908101604052809291908181526020018280546103d39061172c565b80156104205780601f106103f557610100808354040283529160200191610420565b820191906000526020600020905b81548152906001019060200180831161040357829003601f168201915b505050505081525050905090565b60005481565b3273ffffffffffffffffffffffffffffffffffffffff163373ffffffffffffffffffffffffffffffffffffffff16146104a2576040517f08c379a0000000000000000000000000000000000000000000000000000000008152600401610499906117cf565b60405180910390fd5b6000600160003373ffffffffffffffffffffffffffffffffffffffff1673ffffffffffffffffffffffffffffffffffffffff1681526020019081526020016000206000015414610527576040517f08c379a000000000000000000000000000000000000000000000000000000000815260040161051e90611861565b60405180910390fd5b600160005461053691906118b0565b6000819055506040518060a00160405280600054815260200185815260200184815260200183815260200182815250600160003373ffffffffffffffffffffffffffffffffffffffff1673ffffffffffffffffffffffffffffffffffffffff1681526020019081526020016000206000820151816000015560208201518160010190816105c39190611a90565b5060408201518160020190816105d99190611a90565b5060608201518160030190816105ef9190611a90565b5060808201518160040190816106059190611a90565b509050506000543373ffffffffffffffffffffffffffffffffffffffff167fe8d47b56e8cdfa95f871b19d4f50a857217c44a95502b0811a350fec1500dd6760405160405180910390a350505050565b600080600160003373ffffffffffffffffffffffffffffffffffffffff1673ffffffffffffffffffffffffffffffffffffffff1681526020019081526020016000206040518060a0016040529081600082015481526020016001820180546106bc9061172c565b80601f01602080910402602001604051908101604052809291908181526020018280546106e89061172c565b80156107355780601f1061070a57610100808354040283529160200191610735565b820191906000526020600020905b81548152906001019060200180831161071857829003601f168201915b5050505050815260200160028201805461074e9061172c565b80601f016020809104026020016040519081016040528092919081815260200182805461077a9061172c565b80156107c75780601f1061079c576101008083540402835291602001916107c7565b820191906000526020600020905b8154815290600101906020018083116107aa57829003601f168201915b505050505081526020016003820180546107e09061172c565b80601f016020809104026020016040519081016040528092919081815260200182805461080c9061172c565b80156108595780601f1061082e57610100808354040283529160200191610859565b820191906000526020600020905b81548152906001019060200180831161083c57829003601f168201915b505050505081526020016004820180546108729061172c565b80601f016020809104026020016040519081016040528092919081815260200182805461089e9061172c565b80156108eb5780601f106108c0576101008083540402835291602001916108eb565b820191906000526020600020905b8154815290600101906020018083116108ce57829003601f168201915b50505050508152505090506000604051806080016040528083602001518152602001836040015181526020018360600151815260200183608001518152509050600061093682610e0b565b90506109766040518060400160405280600f81526020017f566572696679696e672070726f6f660000000000000000000000000000000000815250610ed0565b6000600260009054906101000a900473ffffffffffffffffffffffffffffffffffffffff1673ffffffffffffffffffffffffffffffffffffffff16632e158b4a6040518060400160405280896000600881106109d5576109d4611b62565b5b60200201358152602001896001600881106109f3576109f2611b62565b5b6020020135815250604051806040016040528060405180604001604052808c600260088110610a2557610a24611b62565b5b602002013581526020018c600360088110610a4357610a42611b62565b5b6020020135815250815260200160405180604001604052808c600460088110610a6f57610a6e611b62565b5b602002013581526020018c600560088110610a8d57610a8c611b62565b5b602002013581525081525060405180604001604052808b600660088110610ab757610ab6611b62565b5b602002013581526020018b600760088110610ad557610ad4611b62565b5b6020020135815250866040518563ffffffff1660e01b8152600401610afd9493929190611daf565b602060405180830381865afa158015610b1a573d6000803e3d6000fd5b505050506040513d601f19601f82011682018060405250810190610b3e9190611e22565b905080945050505050919050565b3273ffffffffffffffffffffffffffffffffffffffff163373ffffffffffffffffffffffffffffffffffffffff1614610bba576040517f08c379a0000000000000000000000000000000000000000000000000000000008152600401610bb1906117cf565b60405180910390fd5b6000600160003373ffffffffffffffffffffffffffffffffffffffff1673ffffffffffffffffffffffffffffffffffffffff1681526020019081526020016000206000015403610c3f576040517f08c379a0000000000000000000000000000000000000000000000000000000008152600401610c3690611ec1565b60405180910390fd5b83600160003373ffffffffffffffffffffffffffffffffffffffff1673ffffffffffffffffffffffffffffffffffffffff1681526020019081526020016000206001019081610c8e9190611a90565b5082600160003373ffffffffffffffffffffffffffffffffffffffff1673ffffffffffffffffffffffffffffffffffffffff1681526020019081526020016000206002019081610cde9190611a90565b5081600160003373ffffffffffffffffffffffffffffffffffffffff1673ffffffffffffffffffffffffffffffffffffffff1681526020019081526020016000206003019081610d2e9190611a90565b5080600160003373ffffffffffffffffffffffffffffffffffffffff1673ffffffffffffffffffffffffffffffffffffffff1681526020019081526020016000206004019081610d7e9190611a90565b50600160003373ffffffffffffffffffffffffffffffffffffffff1673ffffffffffffffffffffffffffffffffffffffff168152602001908152602001600020600001543373ffffffffffffffffffffffffffffffffffffffff167f4a1e31466f875c6fcafefabf90bce8accdf53108c4a309106058ef7aefebd5ce60405160405180910390a350505050565b610e1361120c565b6000610e1e83610f69565b9050610e2981610ffc565b90506000819050610e3861120c565b60005b6064811015610ec4578251811015610e9257828181518110610e6057610e5f611b62565b5b602001015160f81c60f81b60f81c60ff16828260648110610e8457610e83611b62565b5b602002018181525050610eb1565b6000828260648110610ea757610ea6611b62565b5b6020020181815250505b8080610ebc90611ee1565b915050610e3b565b50809350505050919050565b610f6681604051602401610ee49190611f62565b6040516020818303038152906040527f41304fac000000000000000000000000000000000000000000000000000000007bffffffffffffffffffffffffffffffffffffffffffffffffffffffff19166020820180517bffffffffffffffffffffffffffffffffffffffffffffffffffffffff83818316178352505050506111b4565b50565b60608060005b6004811015610ff2576000811115610fa45781604051602001610f929190612022565b60405160208183030381529060405291505b81848260048110610fb857610fb7611b62565b5b6020020151604051602001610fce929190612044565b60405160208183030381529060405291508080610fea90611ee1565b915050610f6f565b5080915050919050565b606060008290506000815167ffffffffffffffff8111156110205761101f6113cd565b5b6040519080825280601f01601f1916602001820160405280156110525781602001600182028036833780820191505090505b50905060005b82518110156111a957604183828151811061107657611075611b62565b5b602001015160f81c60f81b60f81c60ff16101580156110b95750605a8382815181106110a5576110a4611b62565b5b602001015160f81c60f81b60f81c60ff1611155b156111355760208382815181106110d3576110d2611b62565b5b602001015160f81c60f81b60f81c6110eb9190612075565b60f81b82828151811061110157611100611b62565b5b60200101907effffffffffffffffffffffffffffffffffffffffffffffffffffffffffffff1916908160001a905350611196565b82818151811061114857611147611b62565b5b602001015160f81c60f81b82828151811061116657611165611b62565b5b60200101907effffffffffffffffffffffffffffffffffffffffffffffffffffffffffffff1916908160001a9053505b80806111a190611ee1565b915050611058565b508092505050919050565b60008151905060006a636f6e736f6c652e6c6f679050602083016000808483855afa5050505050565b6040518060a0016040528060008152602001606081526020016060815260200160608152602001606081525090565b60405180610c800160405280606490602082028036833780820191505090505090565b6000819050919050565b6112428161122f565b82525050565b600081519050919050565b600082825260208201905092915050565b60005b83811015611282578082015181840152602081019050611267565b60008484015250505050565b6000601f19601f8301169050919050565b60006112aa82611248565b6112b48185611253565b93506112c4818560208601611264565b6112cd8161128e565b840191505092915050565b600060a0830160008301516112f06000860182611239565b5060208301518482036020860152611308828261129f565b91505060408301518482036040860152611322828261129f565b9150506060830151848203606086015261133c828261129f565b91505060808301518482036080860152611356828261129f565b9150508091505092915050565b6000602082019050818103600083015261137d81846112d8565b905092915050565b61138e8161122f565b82525050565b60006020820190506113a96000830184611385565b92915050565b6000604051905090565b600080fd5b600080fd5b600080fd5b600080fd5b7f4e487b7100000000000000000000000000000000000000000000000000000000600052604160045260246000fd5b6114058261128e565b810181811067ffffffffffffffff82111715611424576114236113cd565b5b80604052505050565b60006114376113af565b905061144382826113fc565b919050565b600067ffffffffffffffff821115611463576114626113cd565b5b61146c8261128e565b9050602081019050919050565b82818337600083830152505050565b600061149b61149684611448565b61142d565b9050828152602081018484840111156114b7576114b66113c8565b5b6114c2848285611479565b509392505050565b600082601f8301126114df576114de6113c3565b5b81356114ef848260208601611488565b91505092915050565b60008060008060808587031215611512576115116113b9565b5b600085013567ffffffffffffffff8111156115305761152f6113be565b5b61153c878288016114ca565b945050602085013567ffffffffffffffff81111561155d5761155c6113be565b5b611569878288016114ca565b935050604085013567ffffffffffffffff81111561158a576115896113be565b5b611596878288016114ca565b925050606085013567ffffffffffffffff8111156115b7576115b66113be565b5b6115c3878288016114ca565b91505092959194509250565b600080fd5b6000819050826020600802820111156115f0576115ef6115cf565b5b92915050565b6000610100828403121561160d5761160c6113b9565b5b600061161b848285016115d4565b91505092915050565b60008115159050919050565b61163981611624565b82525050565b60006020820190506116546000830184611630565b92915050565b600082825260208201905092915050565b7f4e6f206964656e746974792065786973747320666f722074686973206f776e6560008201527f722e000000000000000000000000000000000000000000000000000000000000602082015250565b60006116c760228361165a565b91506116d28261166b565b604082019050919050565b600060208201905081810360008301526116f6816116ba565b9050919050565b7f4e487b7100000000000000000000000000000000000000000000000000000000600052602260045260246000fd5b6000600282049050600182168061174457607f821691505b602082108103611757576117566116fd565b5b50919050565b7f4f6e6c7920746865206f776e65722063616e20706572666f726d20746869732060008201527f616374696f6e2e00000000000000000000000000000000000000000000000000602082015250565b60006117b960278361165a565b91506117c48261175d565b604082019050919050565b600060208201905081810360008301526117e8816117ac565b9050919050565b7f416e206964656e7469747920616c72656164792065786973747320666f72207460008201527f686973206f776e65722e00000000000000000000000000000000000000000000602082015250565b600061184b602a8361165a565b9150611856826117ef565b604082019050919050565b6000602082019050818103600083015261187a8161183e565b9050919050565b7f4e487b7100000000000000000000000000000000000000000000000000000000600052601160045260246000fd5b60006118bb8261122f565b91506118c68361122f565b92508282019050808211156118de576118dd611881565b5b92915050565b60008190508160005260206000209050919050565b60006020601f8301049050919050565b600082821b905092915050565b6000600883026119467fffffffffffffffffffffffffffffffffffffffffffffffffffffffffffffffff82611909565b6119508683611909565b95508019841693508086168417925050509392505050565b6000819050919050565b600061198d6119886119838461122f565b611968565b61122f565b9050919050565b6000819050919050565b6119a783611972565b6119bb6119b382611994565b848454611916565b825550505050565b600090565b6119d06119c3565b6119db81848461199e565b505050565b5b818110156119ff576119f46000826119c8565b6001810190506119e1565b5050565b601f821115611a4457611a15816118e4565b611a1e846118f9565b81016020851015611a2d578190505b611a41611a39856118f9565b8301826119e0565b50505b505050565b600082821c905092915050565b6000611a6760001984600802611a49565b1980831691505092915050565b6000611a808383611a56565b9150826002028217905092915050565b611a9982611248565b67ffffffffffffffff811115611ab257611ab16113cd565b5b611abc825461172c565b611ac7828285611a03565b600060209050601f831160018114611afa5760008415611ae8578287015190505b611af28582611a74565b865550611b5a565b601f198416611b08866118e4565b60005b82811015611b3057848901518255600182019150602085019450602081019050611b0b565b86831015611b4d5784890151611b49601f891682611a56565b8355505b6001600288020188555050505b505050505050565b7f4e487b7100000000000000000000000000000000000000000000000000000000600052603260045260246000fd5b600060029050919050565b600081905092915050565b6000819050919050565b6000611bbd8383611239565b60208301905092915050565b6000602082019050919050565b611bdf81611b91565b611be98184611b9c565b9250611bf482611ba7565b8060005b83811015611c25578151611c0c8782611bb1565b9650611c1783611bc9565b925050600181019050611bf8565b505050505050565b600060029050919050565b600081905092915050565b6000819050919050565b600081905092915050565b611c6181611b91565b611c6b8184611c4d565b9250611c7682611ba7565b8060005b83811015611ca7578151611c8e8782611bb1565b9650611c9983611bc9565b925050600181019050611c7a565b505050505050565b6000611cbb8383611c58565b60408301905092915050565b6000602082019050919050565b611cdd81611c2d565b611ce78184611c38565b9250611cf282611c43565b8060005b83811015611d23578151611d0a8782611caf565b9650611d1583611cc7565b925050600181019050611cf6565b505050505050565b600060649050919050565b600081905092915050565b6000819050919050565b6000602082019050919050565b611d6181611d2b565b611d6b8184611d36565b9250611d7682611d41565b8060005b83811015611da7578151611d8e8782611bb1565b9650611d9983611d4b565b925050600181019050611d7a565b505050505050565b6000610d8082019050611dc56000830187611bd6565b611dd26040830186611cd4565b611ddf60c0830185611bd6565b611ded610100830184611d58565b95945050505050565b611dff81611624565b8114611e0a57600080fd5b50565b600081519050611e1c81611df6565b92915050565b600060208284031215611e3857611e376113b9565b5b6000611e4684828501611e0d565b91505092915050565b7f4e6f206964656e746974792065786973747320666f722074686973206f776e6560008201527f7200000000000000000000000000000000000000000000000000000000000000602082015250565b6000611eab60218361165a565b9150611eb682611e4f565b604082019050919050565b60006020820190508181036000830152611eda81611e9e565b9050919050565b6000611eec8261122f565b91507fffffffffffffffffffffffffffffffffffffffffffffffffffffffffffffffff8203611f1e57611f1d611881565b5b600182019050919050565b6000611f3482611248565b611f3e818561165a565b9350611f4e818560208601611264565b611f578161128e565b840191505092915050565b60006020820190508181036000830152611f7c8184611f29565b905092915050565b600081519050919050565b600081905092915050565b6000611fa582611f84565b611faf8185611f8f565b9350611fbf818560208601611264565b80840191505092915050565b600081905092915050565b7f2000000000000000000000000000000000000000000000000000000000000000600082015250565b600061200c600183611fcb565b915061201782611fd6565b600182019050919050565b600061202e8284611f9a565b915061203982611fff565b915081905092915050565b60006120508285611f9a565b915061205c8284611f9a565b91508190509392505050565b600060ff82169050919050565b600061208082612068565b915061208b83612068565b9250828201905060ff8111156120a4576120a3611881565b5b9291505056fea264697066735822122068267480c78d570d5fe97f48aa9cf91990b027907742d7890a27ab5244b7ef0364736f6c63430008120033",
  "linkReferences": {},
  "deployedLinkReferences": {}
}